{
  "_format": "hh-sol-artifact-1",
  "contractName": "TransferableEscrowV2",
  "sourceName": "contracts/owlhouse_v2/TransferableEscrowV2.sol",
  "abi": [
    {
      "inputs": [
        {
          "internalType": "address",
          "name": "paymentToken",
          "type": "address"
        },
        {
          "internalType": "address",
          "name": "assetNFT",
          "type": "address"
        },
        {
          "internalType": "address",
          "name": "borrowerNFT",
          "type": "address"
        },
        {
          "internalType": "address",
          "name": "lenderNFT",
          "type": "address"
        },
        {
          "internalType": "uint256",
          "name": "assetTokenId",
          "type": "uint256"
        },
        {
          "internalType": "uint256",
          "name": "borrowerTokenId",
          "type": "uint256"
        },
        {
          "internalType": "uint256",
          "name": "lenderTokenId",
          "type": "uint256"
        },
        {
          "internalType": "uint256",
          "name": "loanStart",
          "type": "uint256"
        },
        {
          "internalType": "uint256",
          "name": "loanEnd",
          "type": "uint256"
        },
        {
          "internalType": "uint256",
          "name": "weiAssetWorth",
          "type": "uint256"
        },
        {
          "internalType": "uint256",
          "name": "weiAssetWorthInterest",
          "type": "uint256"
        }
      ],
      "stateMutability": "nonpayable",
      "type": "constructor"
    },
    {
      "inputs": [],
      "name": "claimAssetNFT",
      "outputs": [],
      "stateMutability": "nonpayable",
      "type": "function"
    },
    {
      "inputs": [],
      "name": "getBorrower",
      "outputs": [
        {
          "internalType": "address",
          "name": "",
          "type": "address"
        }
      ],
      "stateMutability": "view",
      "type": "function"
    },
    {
      "inputs": [],
      "name": "getLender",
      "outputs": [
        {
          "internalType": "address",
          "name": "",
          "type": "address"
        }
      ],
      "stateMutability": "view",
      "type": "function"
    },
    {
      "inputs": [],
      "name": "hasDefaulted",
      "outputs": [
        {
          "internalType": "bool",
          "name": "",
          "type": "bool"
        }
      ],
      "stateMutability": "view",
      "type": "function"
    },
    {
      "inputs": [
        {
          "internalType": "uint256",
          "name": "amount",
          "type": "uint256"
        }
      ],
      "name": "makePayment",
      "outputs": [],
      "stateMutability": "nonpayable",
      "type": "function"
    },
    {
      "inputs": [
        {
          "internalType": "address",
          "name": "",
          "type": "address"
        },
        {
          "internalType": "address",
          "name": "",
          "type": "address"
        },
        {
          "internalType": "uint256",
          "name": "",
          "type": "uint256"
        },
        {
          "internalType": "bytes",
          "name": "",
          "type": "bytes"
        }
      ],
      "name": "onERC721Received",
      "outputs": [
        {
          "internalType": "bytes4",
          "name": "",
          "type": "bytes4"
        }
      ],
      "stateMutability": "nonpayable",
      "type": "function"
    },
    {
      "inputs": [],
      "name": "paymentInfo",
      "outputs": [
        {
          "internalType": "uint256",
          "name": "loanStart",
          "type": "uint256"
        },
        {
          "internalType": "uint256",
          "name": "loanEnd",
          "type": "uint256"
        },
        {
          "internalType": "uint256",
          "name": "weiPaid",
          "type": "uint256"
        },
        {
          "internalType": "uint256",
          "name": "weiPerSecondPrinciple",
          "type": "uint256"
        },
        {
          "internalType": "uint256",
          "name": "weiPerSecondInterest",
          "type": "uint256"
        },
        {
          "internalType": "bool",
          "name": "paymentsCompleted",
          "type": "bool"
        }
      ],
      "stateMutability": "view",
      "type": "function"
    },
    {
      "inputs": [
        {
          "internalType": "uint256",
          "name": "time",
          "type": "uint256"
        }
      ],
      "name": "paymentsComplete",
      "outputs": [
        {
          "internalType": "bool",
          "name": "",
          "type": "bool"
        }
      ],
      "stateMutability": "view",
      "type": "function"
    },
    {
      "inputs": [
        {
          "internalType": "uint256",
          "name": "_time",
          "type": "uint256"
        }
      ],
      "name": "totalInterestOwedAtTime",
      "outputs": [
        {
          "internalType": "uint256",
          "name": "",
          "type": "uint256"
        }
      ],
      "stateMutability": "view",
      "type": "function"
    },
    {
      "inputs": [],
      "name": "totalOwedAtEnd",
      "outputs": [
        {
          "internalType": "uint256",
          "name": "",
          "type": "uint256"
        }
      ],
      "stateMutability": "view",
      "type": "function"
    },
    {
      "inputs": [
        {
          "internalType": "uint256",
          "name": "_time",
          "type": "uint256"
        }
      ],
      "name": "totalOwedAtTime",
      "outputs": [
        {
          "internalType": "uint256",
          "name": "",
          "type": "uint256"
        }
      ],
      "stateMutability": "view",
      "type": "function"
    },
    {
      "inputs": [],
      "name": "totalOwedNow",
      "outputs": [
        {
          "internalType": "uint256",
          "name": "",
          "type": "uint256"
        }
      ],
      "stateMutability": "view",
      "type": "function"
    },
    {
      "inputs": [],
      "name": "totalPayableNow",
      "outputs": [
        {
          "internalType": "uint256",
          "name": "",
          "type": "uint256"
        }
      ],
      "stateMutability": "view",
      "type": "function"
    },
    {
      "inputs": [],
      "name": "totalPrincipal",
      "outputs": [
        {
          "internalType": "uint256",
          "name": "",
          "type": "uint256"
        }
      ],
      "stateMutability": "view",
      "type": "function"
    },
    {
      "inputs": [
        {
          "internalType": "uint256",
          "name": "_time",
          "type": "uint256"
        }
      ],
      "name": "totalPrincipalOwedAtTime",
      "outputs": [
        {
          "internalType": "uint256",
          "name": "",
          "type": "uint256"
        }
      ],
      "stateMutability": "view",
      "type": "function"
    },
    {
      "inputs": [],
      "name": "withdrawPayment",
      "outputs": [],
      "stateMutability": "nonpayable",
      "type": "function"
    }
  ],
  "bytecode": "0x60806040523480156200001157600080fd5b5060405162000eb338038062000eb38339810160408190526200003491620001a6565b600080546001600160a01b03808e166001600160a01b031992831617909255600180548d8416908316179055600280548c841690831617905560038054928b169290911691909117905560048790556005869055600685905560078490556008839055620000a384846200024a565b620000af908362000270565b600a819055620001065760405162461bcd60e51b815260206004820152601960248201527f7765694173736574576f72746820213e2074696d657370616e0000000000000060448201526064015b60405180910390fd5b801562000178576200011984846200024a565b62000125908262000270565b600b819055620001785760405162461bcd60e51b815260206004820181905260248201527f7765695065725365636f6e64496e74657265737420213e2074696d657370616e6044820152606401620000fd565b505050505050505050505062000293565b80516001600160a01b0381168114620001a157600080fd5b919050565b60008060008060008060008060008060006101608c8e031215620001c957600080fd5b620001d48c62000189565b9a50620001e460208d0162000189565b9950620001f460408d0162000189565b98506200020460608d0162000189565b975060808c0151965060a08c0151955060c08c0151945060e08c015193506101008c015192506101208c015191506101408c015190509295989b509295989b9093969950565b6000828210156200026b57634e487b7160e01b600052601160045260246000fd5b500390565b6000826200028e57634e487b7160e01b600052601260045260246000fd5b500490565b610c1080620002a36000396000f3fe608060405234801561001057600080fd5b50600436106101005760003560e01c80636a15c55e11610097578063afe6962b11610066578063afe6962b1461022c578063ba98920d14610234578063c3ec41e91461023c578063f7aba7651461024457600080fd5b80636a15c55e146101f15780637dbbd7bd146102145780639861f3e51461021c578063a118babd1461022457600080fd5b8063294ce45d116100d3578063294ce45d1461018a5780634af1b0b51461019d5780634b1533b2146101d45780635114cb52146101dc57600080fd5b80630c9df4db14610105578063102567f214610120578063150b7a02146101335780631cb0c3e71461016a575b600080fd5b61010d610257565b6040519081526020015b60405180910390f35b61010d61012e36600461097c565b610286565b6101516101413660046109c3565b630a85bd0160e11b949350505050565b6040516001600160e01b03199091168152602001610117565b6101726102d1565b6040516001600160a01b039091168152602001610117565b61010d61019836600461097c565b610353565b6101a5610377565b6040805196875260208701959095529385019290925260608401526080830152151560a082015260c001610117565b61010d6103ab565b6101ef6101ea36600461097c565b6103b8565b005b6102046101ff36600461097c565b610426565b6040519015158152602001610117565b61010d61044e565b61017261045b565b6101ef610491565b6101ef61052b565b61010d610621565b61020461062c565b61010d61025236600461097c565b61063f565b60006009546102646103ab565b61026d42610286565b6102779190610ab9565b6102819190610ad1565b905090565b600060075482101561029a57506000919050565b6008548211156102aa5760085491505b6000600754836102ba9190610ad1565b9050600b54816102ca9190610ae8565b9392505050565b6002546005546040516331a9108f60e11b815260048101919091526000916001600160a01b031690636352211e906024015b60206040518083038186803b15801561031b57600080fd5b505afa15801561032f573d6000803e3d6000fd5b505050506040513d601f19601f820116820180604052508101906102819190610b07565b600061035e8261063f565b61036783610286565b6103719190610ab9565b92915050565b600080600080600080600754600854600954600a54600b5461039842610426565b949b939a50919850965094509092509050565b600061028160085461063f565b60006103c2610257565b9050808211156103d0578091505b6000546103ef906001600160a01b03166103e86102d1565b3085610683565b81600960008282546104019190610ab9565b90915550610410905042610426565b1515600114156104225761042261052b565b5050565b60006104306103ab565b61043983610286565b6104439190610ab9565b600954101592915050565b6000610281600854610353565b6003546006546040516331a9108f60e11b815260048101919091526000916001600160a01b031690636352211e90602401610303565b600054610529906001600160a01b03166104a961045b565b6000546040516370a0823160e01b81523060048201526001600160a01b03909116906370a082319060240160206040518083038186803b1580156104ec57600080fd5b505afa158015610500573d6000803e3d6000fd5b505050506040513d601f19601f820116820180604052508101906105249190610b24565b6106f4565b565b600061053561062c565b15156001141561054e5761054761045b565b90506105ab565b61055742610426565b151560011415610569576105476102d1565b60405162461bcd60e51b81526020600482015260126024820152714e4654206e6f7420636c61696d61626c652160701b60448201526064015b60405180910390fd5b60015460048054604051632142170760e11b815230928101929092526001600160a01b0384811660248401526044830191909152909116906342842e0e90606401600060405180830381600087803b15801561060657600080fd5b505af115801561061a573d6000803e3d6000fd5b5050505050565b600061028142610353565b6000610636610621565b60095410905090565b600060075482101561065357506000919050565b6008548211156106635760085491505b6000600754836106739190610ad1565b9050600a54816102ca9190610ae8565b6040516001600160a01b03808516602483015283166044820152606481018290526106ee9085906323b872dd60e01b906084015b60408051601f198184030181529190526020810180516001600160e01b03166001600160e01b031990931692909217909152610729565b50505050565b6040516001600160a01b03831660248201526044810182905261072490849063a9059cbb60e01b906064016106b7565b505050565b600061077e826040518060400160405280602081526020017f5361666545524332303a206c6f772d6c6576656c2063616c6c206661696c6564815250856001600160a01b03166107fb9092919063ffffffff16565b805190915015610724578080602001905181019061079c9190610b3d565b6107245760405162461bcd60e51b815260206004820152602a60248201527f5361666545524332303a204552433230206f7065726174696f6e20646964206e6044820152691bdd081cdd58d8d9595960b21b60648201526084016105a2565b606061080a8484600085610812565b949350505050565b6060824710156108735760405162461bcd60e51b815260206004820152602660248201527f416464726573733a20696e73756666696369656e742062616c616e636520666f6044820152651c8818d85b1b60d21b60648201526084016105a2565b6001600160a01b0385163b6108ca5760405162461bcd60e51b815260206004820152601d60248201527f416464726573733a2063616c6c20746f206e6f6e2d636f6e747261637400000060448201526064016105a2565b600080866001600160a01b031685876040516108e69190610b8b565b60006040518083038185875af1925050503d8060008114610923576040519150601f19603f3d011682016040523d82523d6000602084013e610928565b606091505b5091509150610938828286610943565b979650505050505050565b606083156109525750816102ca565b8251156109625782518084602001fd5b8160405162461bcd60e51b81526004016105a29190610ba7565b60006020828403121561098e57600080fd5b5035919050565b6001600160a01b03811681146109aa57600080fd5b50565b634e487b7160e01b600052604160045260246000fd5b600080600080608085870312156109d957600080fd5b84356109e481610995565b935060208501356109f481610995565b925060408501359150606085013567ffffffffffffffff80821115610a1857600080fd5b818701915087601f830112610a2c57600080fd5b813581811115610a3e57610a3e6109ad565b604051601f8201601f19908116603f01168101908382118183101715610a6657610a666109ad565b816040528281528a6020848701011115610a7f57600080fd5b82602086016020830137600060208483010152809550505050505092959194509250565b634e487b7160e01b600052601160045260246000fd5b60008219821115610acc57610acc610aa3565b500190565b600082821015610ae357610ae3610aa3565b500390565b6000816000190483118215151615610b0257610b02610aa3565b500290565b600060208284031215610b1957600080fd5b81516102ca81610995565b600060208284031215610b3657600080fd5b5051919050565b600060208284031215610b4f57600080fd5b815180151581146102ca57600080fd5b60005b83811015610b7a578181015183820152602001610b62565b838111156106ee5750506000910152565b60008251610b9d818460208701610b5f565b9190910192915050565b6020815260008251806020840152610bc6816040850160208701610b5f565b601f01601f1916919091016040019291505056fea26469706673582212205c9dddb9718a165ec2ad4c8ee90d3b7427ffa02fca115f91c29433cc99205b5d64736f6c63430008090033",
  "linkReferences": {},
  "deployedLinkReferences": {}
}