{
  "address": "0x055C5641468F7d8A4B4822B08e113F922088cc0F",
  "abi": [
    {
      "inputs": [],
      "stateMutability": "nonpayable",
      "type": "constructor"
    },
    {
      "anonymous": false,
      "inputs": [
        {
          "indexed": false,
          "internalType": "address",
          "name": "lenderAddress",
          "type": "address"
        },
        {
          "indexed": false,
          "internalType": "address",
          "name": "paymentToken",
          "type": "address"
        },
        {
          "indexed": false,
          "internalType": "address",
          "name": "escrowAddress",
          "type": "address"
        },
        {
          "indexed": false,
          "internalType": "uint256",
          "name": "loanStart",
          "type": "uint256"
        },
        {
          "indexed": false,
          "internalType": "uint256",
          "name": "loanEnd",
          "type": "uint256"
        },
        {
          "indexed": false,
          "internalType": "uint256",
          "name": "weiNetWorth",
          "type": "uint256"
        },
        {
          "indexed": false,
          "internalType": "uint256",
          "name": "weiAssetWorthInterest",
          "type": "uint256"
        }
      ],
      "name": "TransferEscrow",
      "type": "event"
    },
    {
      "inputs": [
        {
          "internalType": "address",
          "name": "lenderAddress",
          "type": "address"
        },
        {
          "internalType": "address",
          "name": "borrowerAddress",
          "type": "address"
        },
        {
          "internalType": "address",
          "name": "assetNFT",
          "type": "address"
        },
        {
          "internalType": "address",
          "name": "paymentToken",
          "type": "address"
        },
        {
          "internalType": "uint256",
          "name": "assetTokenId",
          "type": "uint256"
        },
        {
          "internalType": "uint256",
          "name": "loanStart",
          "type": "uint256"
        },
        {
          "internalType": "uint256",
          "name": "loanEnd",
          "type": "uint256"
        },
        {
          "internalType": "uint256",
          "name": "weiAssetWorth",
          "type": "uint256"
        },
        {
          "internalType": "uint256",
          "name": "weiAssetWorthInterest",
          "type": "uint256"
        }
      ],
      "name": "deployEscrow",
      "outputs": [
        {
          "internalType": "address",
          "name": "",
          "type": "address"
        }
      ],
      "stateMutability": "nonpayable",
      "type": "function"
    }
  ],
  "transactionHash": "0x820d990004be020c75b6e5ee3d69482264544dcf84b6e8fb23c3087b9727e476",
  "args": [],
  "numDeployments": 1,
  "solcInputHash": "73ac05a3d51af56b3e6e2678bc0b1b62",
  "bytecode": "0x608060405234801561001057600080fd5b5060405161001d906100ba565b610026906100c7565b604051809103906000f080158015610042573d6000803e3d6000fd5b50600180546001600160a01b0319166001600160a01b039290921691909117905560405161006f906100ba565b61007890610135565b604051809103906000f080158015610094573d6000803e3d6000fd5b50600280546001600160a01b0319166001600160a01b039290921691909117905561019b565b611dd78061169083390190565b60608152600d60608201526c2137b93937bbb2b92a37b5b2b760991b608082015260a06020820152600460a08201526321292ba960e11b60c082015260e06040820152600061012f60e083016009815268092a08ca65a9082a6960bb1b602082015260400190565b92915050565b60608152600b60608201526a2632b73232b92a37b5b2b760a91b608082015260a06020820152600460a0820152632627222960e11b60c082015260e06040820152600061012f60e083016009815268092a08ca65a9082a6960bb1b602082015260400190565b6114e6806101aa6000396000f3fe608060405234801561001057600080fd5b506004361061002b5760003560e01c80631cd1d8fc14610030575b600080fd5b61004361003e366004610326565b61005f565b6040516001600160a01b03909116815260200160405180910390f35b60008061006b60005490565b90506000888a600160009054906101000a90046001600160a01b0316600260009054906101000a90046001600160a01b03168b86878d8d8d8d6040516100b0906102fd565b6001600160a01b039b8c168152998b1660208b0152978a1660408a0152989095166060880152608087019390935260a086019190915260c085015260e084015261010083015261012082019290925261014081019190915261016001604051809103906000f080158015610128573d6000803e3d6000fd5b509050610139600080546001019055565b600254604051632851206560e21b81526001600160a01b038e81166004830152602482018590529091169063a144819490604401600060405180830381600087803b15801561018757600080fd5b505af115801561019b573d6000803e3d6000fd5b5050600154604051632851206560e21b81526001600160a01b038f8116600483015260248201879052909116925063a14481949150604401600060405180830381600087803b1580156101ed57600080fd5b505af1158015610201573d6000803e3d6000fd5b5050604051632142170760e11b81526001600160a01b038f811660048301528481166024830152604482018c90528d1692506342842e0e9150606401600060405180830381600087803b15801561025757600080fd5b505af115801561026b573d6000803e3d6000fd5b505050507f4c99e46c9b6f8a8b288ce12717b12ffcfcf6e6988b81b42eb8d7463bb4b564f48c8a838a8a8a8a6040516102e697969594939291906001600160a01b03978816815295871660208701529390951660408501526060840191909152608083015260a082019290925260c081019190915260e00190565b60405180910390a19b9a5050505050505050505050565b611108806103a983390190565b80356001600160a01b038116811461032157600080fd5b919050565b60008060008060008060008060006101208a8c03121561034557600080fd5b61034e8a61030a565b985061035c60208b0161030a565b975061036a60408b0161030a565b965061037860608b0161030a565b989b979a50959860808101359760a0820135975060c0820135965060e0820135955061010090910135935091505056fe60806040523480156200001157600080fd5b5060405162001108380380620011088339810160408190526200003491620001a6565b600080546001600160a01b03808e166001600160a01b031992831617909255600180548d8416908316179055600280548c841690831617905560038054928b169290911691909117905560048790556005869055600685905560078490556008839055620000a384846200024a565b620000af908362000270565b6009819055620001065760405162461bcd60e51b815260206004820152601960248201527f7765694173736574576f72746820213e2074696d657370616e0000000000000060448201526064015b60405180910390fd5b801562000178576200011984846200024a565b62000125908262000270565b600a819055620001785760405162461bcd60e51b815260206004820181905260248201527f7765695065725365636f6e64496e74657265737420213e2074696d657370616e6044820152606401620000fd565b505050505050505050505062000293565b80516001600160a01b0381168114620001a157600080fd5b919050565b60008060008060008060008060008060006101608c8e031215620001c957600080fd5b620001d48c62000189565b9a50620001e460208d0162000189565b9950620001f460408d0162000189565b98506200020460608d0162000189565b975060808c0151965060a08c0151955060c08c0151945060e08c015193506101008c015192506101208c015191506101408c015190509295989b509295989b9093969950565b6000828210156200026b57634e487b7160e01b600052601160045260246000fd5b500390565b6000826200028e57634e487b7160e01b600052601260045260246000fd5b500490565b610e6580620002a36000396000f3fe608060405234801561001057600080fd5b50600436106101165760003560e01c80636e04ff0d116100a2578063afe6962b11610071578063afe6962b14610263578063ba98920d1461026b578063bc57910314610273578063c3ec41e91461027b578063f7aba7651461028357600080fd5b80636e04ff0d1461022a5780637dbbd7bd1461024b5780639861f3e514610253578063a118babd1461025b57600080fd5b8063294ce45d116100e9578063294ce45d146101a05780634585e33b146101b35780634af1b0b5146101c85780634b1533b2146101ff5780636a15c55e1461020757600080fd5b80630c9df4db1461011b578063102567f214610136578063150b7a02146101495780631cb0c3e714610180575b600080fd5b610123610296565b6040519081526020015b60405180910390f35b610123610144366004610b3b565b6102ca565b610167610157366004610b7f565b630a85bd0160e11b949350505050565b6040516001600160e01b0319909116815260200161012d565b610188610315565b6040516001600160a01b03909116815260200161012d565b6101236101ae366004610b3b565b610397565b6101c66101c1366004610c5f565b6103bb565b005b6101d06103c7565b6040805196875260208701959095529385019290925260608401526080830152151560a082015260c00161012d565b610123610400565b61021a610215366004610b3b565b61040d565b604051901515815260200161012d565b61023d610238366004610c5f565b61043a565b60405161012d929190610d29565b610123610464565b610188610471565b6101c66104a7565b6101c6610683565b61012361077c565b610123610787565b61021a61081f565b610123610291366004610b3b565b610837565b60006102a0610787565b6102a8610400565b6102b1426102ca565b6102bb9190610d5a565b6102c59190610d72565b905090565b60006007548210156102de57506000919050565b6008548211156102ee5760085491505b6000600754836102fe9190610d72565b9050600a548161030e9190610d89565b9392505050565b6002546005546040516331a9108f60e11b815260048101919091526000916001600160a01b031690636352211e906024015b60206040518083038186803b15801561035f57600080fd5b505afa158015610373573d6000803e3d6000fd5b505050506040513d601f19601f820116820180604052508101906102c59190610da8565b60006103a282610837565b6103ab836102ca565b6103b59190610d5a565b92915050565b6103c3610683565b5050565b6000806000806000806007546008546103de610787565b600954600a546103ed4261040d565b949b939a50919850965094509092509050565b60006102c5600854610837565b6000610417610400565b610420836102ca565b61042a9190610d5a565b610432610787565b101592915050565b6000606061044661081f565b8061045b57506104554261040d565b15156001145b91509250929050565b60006102c5600854610397565b6003546006546040516331a9108f60e11b815260048101919091526000916001600160a01b031690636352211e90602401610347565b60006104b1610787565b90506000600b54826104c39190610d72565b9050600081116105095760405162461bcd60e51b815260206004820152600c60248201526b1b9bc8185b5d08185d985a5b60a21b60448201526064015b60405180910390fd5b80600b600082825461051b9190610d5a565b90915550506000546040516308de640f60e11b8152600481018390526001600160a01b039091169081906311bcc81e90602401600060405180830381600087803b15801561056857600080fd5b505af115801561057c573d6000803e3d6000fd5b505050506000816001600160a01b031663ee719bc86040518163ffffffff1660e01b815260040160206040518083038186803b1580156105bb57600080fd5b505afa1580156105cf573d6000803e3d6000fd5b505050506040513d601f19601f820116820180604052508101906105f39190610da8565b905061067d81610601610471565b6040516370a0823160e01b81523060048201526001600160a01b038516906370a082319060240160206040518083038186803b15801561064057600080fd5b505afa158015610654573d6000803e3d6000fd5b505050506040513d601f19601f820116820180604052508101906106789190610dc5565b61087b565b50505050565b600061068d61081f565b1515600114156106a65761069f610471565b90506106fe565b6106af4261040d565b1515600114156106c15761069f610315565b60405162461bcd60e51b81526020600482015260126024820152714e4654206e6f7420636c61696d61626c652160701b6044820152606401610500565b60015460048054604051632142170760e11b815230928101929092526001600160a01b0384811660248401526044830191909152909116906342842e0e90606401600060405180830381600087803b15801561075957600080fd5b505af115801561076d573d6000803e3d6000fd5b505050506107796104a7565b50565b60006102c542610397565b600080546040516370a0823160e01b81523060048201526102c5916001600160a01b0316906370a082319060240160206040518083038186803b1580156107cd57600080fd5b505afa1580156107e1573d6000803e3d6000fd5b505050506040513d601f19601f820116820180604052508101906108059190610dc5565b600b546108129190610d5a565b61081a610464565b6108d2565b600061082961077c565b610831610787565b10905090565b600060075482101561084b57506000919050565b60085482111561085b5760085491505b60006007548361086b9190610d72565b90506009548161030e9190610d89565b604080516001600160a01b038416602482015260448082018490528251808303909101815260649091019091526020810180516001600160e01b031663a9059cbb60e01b1790526108cd9084906108e8565b505050565b60008183106108e1578161030e565b5090919050565b600061093d826040518060400160405280602081526020017f5361666545524332303a206c6f772d6c6576656c2063616c6c206661696c6564815250856001600160a01b03166109ba9092919063ffffffff16565b8051909150156108cd578080602001905181019061095b9190610dde565b6108cd5760405162461bcd60e51b815260206004820152602a60248201527f5361666545524332303a204552433230206f7065726174696f6e20646964206e6044820152691bdd081cdd58d8d9595960b21b6064820152608401610500565b60606109c984846000856109d1565b949350505050565b606082471015610a325760405162461bcd60e51b815260206004820152602660248201527f416464726573733a20696e73756666696369656e742062616c616e636520666f6044820152651c8818d85b1b60d21b6064820152608401610500565b6001600160a01b0385163b610a895760405162461bcd60e51b815260206004820152601d60248201527f416464726573733a2063616c6c20746f206e6f6e2d636f6e74726163740000006044820152606401610500565b600080866001600160a01b03168587604051610aa59190610e00565b60006040518083038185875af1925050503d8060008114610ae2576040519150601f19603f3d011682016040523d82523d6000602084013e610ae7565b606091505b5091509150610af7828286610b02565b979650505050505050565b60608315610b1157508161030e565b825115610b215782518084602001fd5b8160405162461bcd60e51b81526004016105009190610e1c565b600060208284031215610b4d57600080fd5b5035919050565b6001600160a01b038116811461077957600080fd5b634e487b7160e01b600052604160045260246000fd5b60008060008060808587031215610b9557600080fd5b8435610ba081610b54565b93506020850135610bb081610b54565b925060408501359150606085013567ffffffffffffffff80821115610bd457600080fd5b818701915087601f830112610be857600080fd5b813581811115610bfa57610bfa610b69565b604051601f8201601f19908116603f01168101908382118183101715610c2257610c22610b69565b816040528281528a6020848701011115610c3b57600080fd5b82602086016020830137600060208483010152809550505050505092959194509250565b60008060208385031215610c7257600080fd5b823567ffffffffffffffff80821115610c8a57600080fd5b818501915085601f830112610c9e57600080fd5b813581811115610cad57600080fd5b866020828501011115610cbf57600080fd5b60209290920196919550909350505050565b60005b83811015610cec578181015183820152602001610cd4565b8381111561067d5750506000910152565b60008151808452610d15816020860160208601610cd1565b601f01601f19169290920160200192915050565b82151581526040602082015260006109c96040830184610cfd565b634e487b7160e01b600052601160045260246000fd5b60008219821115610d6d57610d6d610d44565b500190565b600082821015610d8457610d84610d44565b500390565b6000816000190483118215151615610da357610da3610d44565b500290565b600060208284031215610dba57600080fd5b815161030e81610b54565b600060208284031215610dd757600080fd5b5051919050565b600060208284031215610df057600080fd5b8151801515811461030e57600080fd5b60008251610e12818460208701610cd1565b9190910192915050565b60208152600061030e6020830184610cfd56fea26469706673582212208082d444e18231c5206cc54267a7dfa78b7c27de75ce34ae7706fa77e6aae7e664736f6c63430008090033a264697066735822122059319abdfac2cc034e31faaefd17180d54a2ca43d4a4cf22f94604c16e29bbe064736f6c6343000809003360806040523480156200001157600080fd5b5060405162001dd738038062001dd78339810160408190526200003491620002d8565b8251839083906200004d90600090602085019062000165565b5080516200006390600190602084019062000165565b506200007591506000905033620000c0565b620000a17f9f2df0fed2c77648de5860a4cc508cd0818c85b8b8a1ab4ceeef8d981c8956a633620000c0565b8051620000b690600790602084019062000165565b50505050620003a6565b60008281526006602090815260408083206001600160a01b038516845290915290205460ff16620001615760008281526006602090815260408083206001600160a01b03851684529091529020805460ff19166001179055620001203390565b6001600160a01b0316816001600160a01b0316837f2f8788117e7eff1d82e926ec794901d17c78024a50270940304540a733656f0d60405160405180910390a45b5050565b828054620001739062000369565b90600052602060002090601f016020900481019282620001975760008555620001e2565b82601f10620001b257805160ff1916838001178555620001e2565b82800160010185558215620001e2579182015b82811115620001e2578251825591602001919060010190620001c5565b50620001f0929150620001f4565b5090565b5b80821115620001f05760008155600101620001f5565b634e487b7160e01b600052604160045260246000fd5b600082601f8301126200023357600080fd5b81516001600160401b03808211156200025057620002506200020b565b604051601f8301601f19908116603f011681019082821181831017156200027b576200027b6200020b565b816040528381526020925086838588010111156200029857600080fd5b600091505b83821015620002bc57858201830151818301840152908201906200029d565b83821115620002ce5760008385830101525b9695505050505050565b600080600060608486031215620002ee57600080fd5b83516001600160401b03808211156200030657600080fd5b620003148783880162000221565b945060208601519150808211156200032b57600080fd5b620003398783880162000221565b935060408601519150808211156200035057600080fd5b506200035f8682870162000221565b9150509250925092565b600181811c908216806200037e57607f821691505b60208210811415620003a057634e487b7160e01b600052602260045260246000fd5b50919050565b611a2180620003b66000396000f3fe608060405234801561001057600080fd5b50600436106101375760003560e01c806370a08231116100b8578063a22cb4651161007c578063a22cb46514610292578063b88d4fde146102a5578063c87b56dd146102b8578063d5391393146102cb578063d547741f146102f2578063e985e9c51461030557600080fd5b806370a082311461024957806391d148541461025c57806395d89b411461026f578063a144819414610277578063a217fddf1461028a57600080fd5b8063248a9ca3116100ff578063248a9ca3146101cc5780632f2ff15d146101fd57806336568abe1461021057806342842e0e146102235780636352211e1461023657600080fd5b806301ffc9a71461013c57806306fdde0314610164578063081812fc14610179578063095ea7b3146101a457806323b872dd146101b9575b600080fd5b61014f61014a366004611463565b610341565b60405190151581526020015b60405180910390f35b61016c610352565b60405161015b91906114d8565b61018c6101873660046114eb565b6103e4565b6040516001600160a01b03909116815260200161015b565b6101b76101b2366004611520565b61047e565b005b6101b76101c736600461154a565b610594565b6101ef6101da3660046114eb565b60009081526006602052604090206001015490565b60405190815260200161015b565b6101b761020b366004611586565b6105c5565b6101b761021e366004611586565b6105ea565b6101b761023136600461154a565b610668565b61018c6102443660046114eb565b610683565b6101ef6102573660046115b2565b6106fa565b61014f61026a366004611586565b610781565b61016c6107ac565b6101b7610285366004611520565b6107bb565b6101ef600081565b6101b76102a03660046115cd565b6107ef565b6101b76102b336600461161f565b6107fa565b61016c6102c63660046114eb565b610832565b6101ef7f9f2df0fed2c77648de5860a4cc508cd0818c85b8b8a1ab4ceeef8d981c8956a681565b6101b7610300366004611586565b61090d565b61014f6103133660046116fb565b6001600160a01b03918216600090815260056020908152604080832093909416825291909152205460ff1690565b600061034c82610932565b92915050565b60606000805461036190611725565b80601f016020809104026020016040519081016040528092919081815260200182805461038d90611725565b80156103da5780601f106103af576101008083540402835291602001916103da565b820191906000526020600020905b8154815290600101906020018083116103bd57829003601f168201915b5050505050905090565b6000818152600260205260408120546001600160a01b03166104625760405162461bcd60e51b815260206004820152602c60248201527f4552433732313a20617070726f76656420717565727920666f72206e6f6e657860448201526b34b9ba32b73a103a37b5b2b760a11b60648201526084015b60405180910390fd5b506000908152600460205260409020546001600160a01b031690565b600061048982610683565b9050806001600160a01b0316836001600160a01b031614156104f75760405162461bcd60e51b815260206004820152602160248201527f4552433732313a20617070726f76616c20746f2063757272656e74206f776e656044820152603960f91b6064820152608401610459565b336001600160a01b038216148061051357506105138133610313565b6105855760405162461bcd60e51b815260206004820152603860248201527f4552433732313a20617070726f76652063616c6c6572206973206e6f74206f7760448201527f6e6572206e6f7220617070726f76656420666f7220616c6c00000000000000006064820152608401610459565b61058f8383610957565b505050565b61059e33826109c5565b6105ba5760405162461bcd60e51b815260040161045990611760565b61058f838383610abc565b6000828152600660205260409020600101546105e081610c58565b61058f8383610c65565b6001600160a01b038116331461065a5760405162461bcd60e51b815260206004820152602f60248201527f416363657373436f6e74726f6c3a2063616e206f6e6c792072656e6f756e636560448201526e103937b632b9903337b91039b2b63360891b6064820152608401610459565b6106648282610ceb565b5050565b61058f838383604051806020016040528060008152506107fa565b6000818152600260205260408120546001600160a01b03168061034c5760405162461bcd60e51b815260206004820152602960248201527f4552433732313a206f776e657220717565727920666f72206e6f6e657869737460448201526832b73a103a37b5b2b760b91b6064820152608401610459565b60006001600160a01b0382166107655760405162461bcd60e51b815260206004820152602a60248201527f4552433732313a2062616c616e636520717565727920666f7220746865207a65604482015269726f206164647265737360b01b6064820152608401610459565b506001600160a01b031660009081526003602052604090205490565b60009182526006602090815260408084206001600160a01b0393909316845291905290205460ff1690565b60606001805461036190611725565b7f9f2df0fed2c77648de5860a4cc508cd0818c85b8b8a1ab4ceeef8d981c8956a66107e581610c58565b61058f8383610d52565b610664338383610d6c565b61080433836109c5565b6108205760405162461bcd60e51b815260040161045990611760565b61082c84848484610e3b565b50505050565b6000818152600260205260409020546060906001600160a01b03166108b15760405162461bcd60e51b815260206004820152602f60248201527f4552433732314d657461646174613a2055524920717565727920666f72206e6f60448201526e3732bc34b9ba32b73a103a37b5b2b760891b6064820152608401610459565b60006108bb610e6e565b905060008151116108db5760405180602001604052806000815250610906565b806108e584610e7d565b6040516020016108f69291906117b1565b6040516020818303038152906040525b9392505050565b60008281526006602052604090206001015461092881610c58565b61058f8383610ceb565b60006001600160e01b03198216637965db0b60e01b148061034c575061034c82610f7b565b600081815260046020526040902080546001600160a01b0319166001600160a01b038416908117909155819061098c82610683565b6001600160a01b03167f8c5be1e5ebec7d5bd14f71427d1e84f3dd0314c0f7b2291e5b200ac8c7c3b92560405160405180910390a45050565b6000818152600260205260408120546001600160a01b0316610a3e5760405162461bcd60e51b815260206004820152602c60248201527f4552433732313a206f70657261746f7220717565727920666f72206e6f6e657860448201526b34b9ba32b73a103a37b5b2b760a11b6064820152608401610459565b6000610a4983610683565b9050806001600160a01b0316846001600160a01b03161480610a9057506001600160a01b0380821660009081526005602090815260408083209388168352929052205460ff165b80610ab45750836001600160a01b0316610aa9846103e4565b6001600160a01b0316145b949350505050565b826001600160a01b0316610acf82610683565b6001600160a01b031614610b335760405162461bcd60e51b815260206004820152602560248201527f4552433732313a207472616e736665722066726f6d20696e636f72726563742060448201526437bbb732b960d91b6064820152608401610459565b6001600160a01b038216610b955760405162461bcd60e51b8152602060048201526024808201527f4552433732313a207472616e7366657220746f20746865207a65726f206164646044820152637265737360e01b6064820152608401610459565b610ba0600082610957565b6001600160a01b0383166000908152600360205260408120805460019290610bc99084906117f6565b90915550506001600160a01b0382166000908152600360205260408120805460019290610bf790849061180d565b909155505060008181526002602052604080822080546001600160a01b0319166001600160a01b0386811691821790925591518493918716917fddf252ad1be2c89b69c2b068fc378daa952ba7f163c4a11628f55a4df523b3ef91a4505050565b610c628133610fcb565b50565b610c6f8282610781565b6106645760008281526006602090815260408083206001600160a01b03851684529091529020805460ff19166001179055610ca73390565b6001600160a01b0316816001600160a01b0316837f2f8788117e7eff1d82e926ec794901d17c78024a50270940304540a733656f0d60405160405180910390a45050565b610cf58282610781565b156106645760008281526006602090815260408083206001600160a01b0385168085529252808320805460ff1916905551339285917ff6391f5c32d9c69d2a47ea670b442974b53935d1edc7fd64eb21e047a839171b9190a45050565b61066482826040518060200160405280600081525061102f565b816001600160a01b0316836001600160a01b03161415610dce5760405162461bcd60e51b815260206004820152601960248201527f4552433732313a20617070726f766520746f2063616c6c6572000000000000006044820152606401610459565b6001600160a01b03838116600081815260056020908152604080832094871680845294825291829020805460ff191686151590811790915591519182527f17307eab39ab6107e8899845ad3d59bd9653f200f220920489ca2b5937696c31910160405180910390a3505050565b610e46848484610abc565b610e5284848484611062565b61082c5760405162461bcd60e51b815260040161045990611825565b60606007805461036190611725565b606081610ea15750506040805180820190915260018152600360fc1b602082015290565b8160005b8115610ecb5780610eb581611877565b9150610ec49050600a836118a8565b9150610ea5565b60008167ffffffffffffffff811115610ee657610ee6611609565b6040519080825280601f01601f191660200182016040528015610f10576020820181803683370190505b5090505b8415610ab457610f256001836117f6565b9150610f32600a866118bc565b610f3d90603061180d565b60f81b818381518110610f5257610f526118d0565b60200101906001600160f81b031916908160001a905350610f74600a866118a8565b9450610f14565b60006001600160e01b031982166380ac58cd60e01b1480610fac57506001600160e01b03198216635b5e139f60e01b145b8061034c57506301ffc9a760e01b6001600160e01b031983161461034c565b610fd58282610781565b61066457610fed816001600160a01b0316601461116f565b610ff883602061116f565b6040516020016110099291906118e6565b60408051601f198184030181529082905262461bcd60e51b8252610459916004016114d8565b611039838361130b565b6110466000848484611062565b61058f5760405162461bcd60e51b815260040161045990611825565b60006001600160a01b0384163b1561116457604051630a85bd0160e11b81526001600160a01b0385169063150b7a02906110a690339089908890889060040161195b565b602060405180830381600087803b1580156110c057600080fd5b505af19250505080156110f0575060408051601f3d908101601f191682019092526110ed91810190611998565b60015b61114a573d80801561111e576040519150601f19603f3d011682016040523d82523d6000602084013e611123565b606091505b5080516111425760405162461bcd60e51b815260040161045990611825565b805181602001fd5b6001600160e01b031916630a85bd0160e11b149050610ab4565b506001949350505050565b6060600061117e8360026119b5565b61118990600261180d565b67ffffffffffffffff8111156111a1576111a1611609565b6040519080825280601f01601f1916602001820160405280156111cb576020820181803683370190505b509050600360fc1b816000815181106111e6576111e66118d0565b60200101906001600160f81b031916908160001a905350600f60fb1b81600181518110611215576112156118d0565b60200101906001600160f81b031916908160001a90535060006112398460026119b5565b61124490600161180d565b90505b60018111156112bc576f181899199a1a9b1b9c1cb0b131b232b360811b85600f1660108110611278576112786118d0565b1a60f81b82828151811061128e5761128e6118d0565b60200101906001600160f81b031916908160001a90535060049490941c936112b5816119d4565b9050611247565b5083156109065760405162461bcd60e51b815260206004820181905260248201527f537472696e67733a20686578206c656e67746820696e73756666696369656e746044820152606401610459565b6001600160a01b0382166113615760405162461bcd60e51b815260206004820181905260248201527f4552433732313a206d696e7420746f20746865207a65726f20616464726573736044820152606401610459565b6000818152600260205260409020546001600160a01b0316156113c65760405162461bcd60e51b815260206004820152601c60248201527f4552433732313a20746f6b656e20616c7265616479206d696e746564000000006044820152606401610459565b6001600160a01b03821660009081526003602052604081208054600192906113ef90849061180d565b909155505060008181526002602052604080822080546001600160a01b0319166001600160a01b03861690811790915590518392907fddf252ad1be2c89b69c2b068fc378daa952ba7f163c4a11628f55a4df523b3ef908290a45050565b6001600160e01b031981168114610c6257600080fd5b60006020828403121561147557600080fd5b81356109068161144d565b60005b8381101561149b578181015183820152602001611483565b8381111561082c5750506000910152565b600081518084526114c4816020860160208601611480565b601f01601f19169290920160200192915050565b60208152600061090660208301846114ac565b6000602082840312156114fd57600080fd5b5035919050565b80356001600160a01b038116811461151b57600080fd5b919050565b6000806040838503121561153357600080fd5b61153c83611504565b946020939093013593505050565b60008060006060848603121561155f57600080fd5b61156884611504565b925061157660208501611504565b9150604084013590509250925092565b6000806040838503121561159957600080fd5b823591506115a960208401611504565b90509250929050565b6000602082840312156115c457600080fd5b61090682611504565b600080604083850312156115e057600080fd5b6115e983611504565b9150602083013580151581146115fe57600080fd5b809150509250929050565b634e487b7160e01b600052604160045260246000fd5b6000806000806080858703121561163557600080fd5b61163e85611504565b935061164c60208601611504565b925060408501359150606085013567ffffffffffffffff8082111561167057600080fd5b818701915087601f83011261168457600080fd5b81358181111561169657611696611609565b604051601f8201601f19908116603f011681019083821181831017156116be576116be611609565b816040528281528a60208487010111156116d757600080fd5b82602086016020830137600060208483010152809550505050505092959194509250565b6000806040838503121561170e57600080fd5b61171783611504565b91506115a960208401611504565b600181811c9082168061173957607f821691505b6020821081141561175a57634e487b7160e01b600052602260045260246000fd5b50919050565b60208082526031908201527f4552433732313a207472616e736665722063616c6c6572206973206e6f74206f6040820152701ddb995c881b9bdc88185c1c1c9bdd9959607a1b606082015260800190565b600083516117c3818460208801611480565b8351908301906117d7818360208801611480565b01949350505050565b634e487b7160e01b600052601160045260246000fd5b600082821015611808576118086117e0565b500390565b60008219821115611820576118206117e0565b500190565b60208082526032908201527f4552433732313a207472616e7366657220746f206e6f6e20455243373231526560408201527131b2b4bb32b91034b6b83632b6b2b73a32b960711b606082015260800190565b600060001982141561188b5761188b6117e0565b5060010190565b634e487b7160e01b600052601260045260246000fd5b6000826118b7576118b7611892565b500490565b6000826118cb576118cb611892565b500690565b634e487b7160e01b600052603260045260246000fd5b7f416363657373436f6e74726f6c3a206163636f756e742000000000000000000081526000835161191e816017850160208801611480565b7001034b99036b4b9b9b4b733903937b6329607d1b601791840191820152835161194f816028840160208801611480565b01602801949350505050565b6001600160a01b038581168252841660208201526040810183905260806060820181905260009061198e908301846114ac565b9695505050505050565b6000602082840312156119aa57600080fd5b81516109068161144d565b60008160001904831182151516156119cf576119cf6117e0565b500290565b6000816119e3576119e36117e0565b50600019019056fea26469706673582212200194daa8e6124ee158826ed75b3dcce1becd7fc818a477f429c74e951bd9342264736f6c63430008090033",
  "devdoc": {
    "kind": "dev",
    "methods": {},
    "version": 1
  },
  "userdoc": {
    "kind": "user",
    "methods": {},
    "version": 1
  },
  "storageLayout": {
    "storage": [
      {
        "astId": 7522,
        "contract": "contracts/owlhouse_v4/OwlhouseFactoryV4.sol:OwlhouseFactoryV4",
        "label": "_mintCounter",
        "offset": 0,
        "slot": "0",
        "type": "t_struct(Counter)3136_storage"
      },
      {
        "astId": 7524,
        "contract": "contracts/owlhouse_v4/OwlhouseFactoryV4.sol:OwlhouseFactoryV4",
        "label": "_borrowerNFT",
        "offset": 0,
        "slot": "1",
        "type": "t_address"
      },
      {
        "astId": 7526,
        "contract": "contracts/owlhouse_v4/OwlhouseFactoryV4.sol:OwlhouseFactoryV4",
        "label": "_lenderNFT",
        "offset": 0,
        "slot": "2",
        "type": "t_address"
      }
    ],
    "types": {
      "t_address": {
        "encoding": "inplace",
        "label": "address",
        "numberOfBytes": "20"
      },
      "t_struct(Counter)3136_storage": {
        "encoding": "inplace",
        "label": "struct Counters.Counter",
        "members": [
          {
            "astId": 3135,
            "contract": "contracts/owlhouse_v4/OwlhouseFactoryV4.sol:OwlhouseFactoryV4",
            "label": "_value",
            "offset": 0,
            "slot": "0",
            "type": "t_uint256"
          }
        ],
        "numberOfBytes": "32"
      },
      "t_uint256": {
        "encoding": "inplace",
        "label": "uint256",
        "numberOfBytes": "32"
      }
    }
  }
}