{
  "address": "0x811A549BE92e3094F9477aBf6bcBD6f145ed9244",
  "abi": [
    {
      "inputs": [],
      "stateMutability": "nonpayable",
      "type": "constructor"
    },
    {
      "anonymous": false,
      "inputs": [
        {
          "indexed": true,
          "internalType": "address",
          "name": "owner",
          "type": "address"
        },
        {
          "indexed": true,
          "internalType": "address",
          "name": "approved",
          "type": "address"
        },
        {
          "indexed": true,
          "internalType": "uint256",
          "name": "tokenId",
          "type": "uint256"
        }
      ],
      "name": "Approval",
      "type": "event"
    },
    {
      "anonymous": false,
      "inputs": [
        {
          "indexed": true,
          "internalType": "address",
          "name": "owner",
          "type": "address"
        },
        {
          "indexed": true,
          "internalType": "address",
          "name": "operator",
          "type": "address"
        },
        {
          "indexed": false,
          "internalType": "bool",
          "name": "approved",
          "type": "bool"
        }
      ],
      "name": "ApprovalForAll",
      "type": "event"
    },
    {
      "anonymous": false,
      "inputs": [
        {
          "indexed": true,
          "internalType": "address",
          "name": "previousOwner",
          "type": "address"
        },
        {
          "indexed": true,
          "internalType": "address",
          "name": "newOwner",
          "type": "address"
        }
      ],
      "name": "OwnershipTransferred",
      "type": "event"
    },
    {
      "anonymous": false,
      "inputs": [
        {
          "indexed": true,
          "internalType": "address",
          "name": "from",
          "type": "address"
        },
        {
          "indexed": true,
          "internalType": "address",
          "name": "to",
          "type": "address"
        },
        {
          "indexed": true,
          "internalType": "uint256",
          "name": "tokenId",
          "type": "uint256"
        }
      ],
      "name": "Transfer",
      "type": "event"
    },
    {
      "inputs": [
        {
          "internalType": "address",
          "name": "to",
          "type": "address"
        },
        {
          "internalType": "uint256",
          "name": "tokenId",
          "type": "uint256"
        }
      ],
      "name": "approve",
      "outputs": [],
      "stateMutability": "nonpayable",
      "type": "function"
    },
    {
      "inputs": [
        {
          "internalType": "address",
          "name": "owner",
          "type": "address"
        }
      ],
      "name": "balanceOf",
      "outputs": [
        {
          "internalType": "uint256",
          "name": "",
          "type": "uint256"
        }
      ],
      "stateMutability": "view",
      "type": "function"
    },
    {
      "inputs": [
        {
          "internalType": "uint256",
          "name": "tokenId",
          "type": "uint256"
        }
      ],
      "name": "getApproved",
      "outputs": [
        {
          "internalType": "address",
          "name": "",
          "type": "address"
        }
      ],
      "stateMutability": "view",
      "type": "function"
    },
    {
      "inputs": [
        {
          "internalType": "address",
          "name": "owner",
          "type": "address"
        },
        {
          "internalType": "address",
          "name": "operator",
          "type": "address"
        }
      ],
      "name": "isApprovedForAll",
      "outputs": [
        {
          "internalType": "bool",
          "name": "",
          "type": "bool"
        }
      ],
      "stateMutability": "view",
      "type": "function"
    },
    {
      "inputs": [],
      "name": "name",
      "outputs": [
        {
          "internalType": "string",
          "name": "",
          "type": "string"
        }
      ],
      "stateMutability": "view",
      "type": "function"
    },
    {
      "inputs": [],
      "name": "owner",
      "outputs": [
        {
          "internalType": "address",
          "name": "",
          "type": "address"
        }
      ],
      "stateMutability": "view",
      "type": "function"
    },
    {
      "inputs": [
        {
          "internalType": "uint256",
          "name": "tokenId",
          "type": "uint256"
        }
      ],
      "name": "ownerOf",
      "outputs": [
        {
          "internalType": "address",
          "name": "",
          "type": "address"
        }
      ],
      "stateMutability": "view",
      "type": "function"
    },
    {
      "inputs": [],
      "name": "renounceOwnership",
      "outputs": [],
      "stateMutability": "nonpayable",
      "type": "function"
    },
    {
      "inputs": [
        {
          "internalType": "address",
          "name": "to",
          "type": "address"
        },
        {
          "internalType": "uint256",
          "name": "tokenId",
          "type": "uint256"
        },
        {
          "internalType": "string",
          "name": "uri",
          "type": "string"
        }
      ],
      "name": "safeMint",
      "outputs": [],
      "stateMutability": "nonpayable",
      "type": "function"
    },
    {
      "inputs": [
        {
          "internalType": "address",
          "name": "from",
          "type": "address"
        },
        {
          "internalType": "address",
          "name": "to",
          "type": "address"
        },
        {
          "internalType": "uint256",
          "name": "tokenId",
          "type": "uint256"
        }
      ],
      "name": "safeTransferFrom",
      "outputs": [],
      "stateMutability": "nonpayable",
      "type": "function"
    },
    {
      "inputs": [
        {
          "internalType": "address",
          "name": "from",
          "type": "address"
        },
        {
          "internalType": "address",
          "name": "to",
          "type": "address"
        },
        {
          "internalType": "uint256",
          "name": "tokenId",
          "type": "uint256"
        },
        {
          "internalType": "bytes",
          "name": "_data",
          "type": "bytes"
        }
      ],
      "name": "safeTransferFrom",
      "outputs": [],
      "stateMutability": "nonpayable",
      "type": "function"
    },
    {
      "inputs": [
        {
          "internalType": "address",
          "name": "operator",
          "type": "address"
        },
        {
          "internalType": "bool",
          "name": "approved",
          "type": "bool"
        }
      ],
      "name": "setApprovalForAll",
      "outputs": [],
      "stateMutability": "nonpayable",
      "type": "function"
    },
    {
      "inputs": [
        {
          "internalType": "bytes4",
          "name": "interfaceId",
          "type": "bytes4"
        }
      ],
      "name": "supportsInterface",
      "outputs": [
        {
          "internalType": "bool",
          "name": "",
          "type": "bool"
        }
      ],
      "stateMutability": "view",
      "type": "function"
    },
    {
      "inputs": [],
      "name": "symbol",
      "outputs": [
        {
          "internalType": "string",
          "name": "",
          "type": "string"
        }
      ],
      "stateMutability": "view",
      "type": "function"
    },
    {
      "inputs": [
        {
          "internalType": "uint256",
          "name": "tokenId",
          "type": "uint256"
        }
      ],
      "name": "tokenURI",
      "outputs": [
        {
          "internalType": "string",
          "name": "",
          "type": "string"
        }
      ],
      "stateMutability": "view",
      "type": "function"
    },
    {
      "inputs": [
        {
          "internalType": "address",
          "name": "from",
          "type": "address"
        },
        {
          "internalType": "address",
          "name": "to",
          "type": "address"
        },
        {
          "internalType": "uint256",
          "name": "tokenId",
          "type": "uint256"
        }
      ],
      "name": "transferFrom",
      "outputs": [],
      "stateMutability": "nonpayable",
      "type": "function"
    },
    {
      "inputs": [
        {
          "internalType": "address",
          "name": "newOwner",
          "type": "address"
        }
      ],
      "name": "transferOwnership",
      "outputs": [],
      "stateMutability": "nonpayable",
      "type": "function"
    }
  ],
  "transactionHash": "0x7d165a255dfed60f00bc82ffd8fd6e6251a590ad7ea2ea3bcce58f08707e5538",
  "args": [],
  "numDeployments": 1,
  "solcInputHash": "4de59d506e751f06bbb6ff6329f63ac0",
  "bytecode": "0x60806040523480156200001157600080fd5b50604080518082018252600a81526927bbb62a37b5b2b72b1960b11b60208083019182528351808501909452600384526248545360e81b9084015281519192916200005f91600091620000ee565b50805162000075906001906020840190620000ee565b505050620000926200008c6200009860201b60201c565b6200009c565b620001d1565b3390565b600780546001600160a01b038381166001600160a01b0319831681179093556040519116919082907f8be0079c531659141344cd1fd0a4f28419497f9722a3daafe3b4186f6b6457e090600090a35050565b828054620000fc9062000194565b90600052602060002090601f0160209004810192826200012057600085556200016b565b82601f106200013b57805160ff19168380011785556200016b565b828001600101855582156200016b579182015b828111156200016b5782518255916020019190600101906200014e565b50620001799291506200017d565b5090565b5b808211156200017957600081556001016200017e565b600181811c90821680620001a957607f821691505b60208210811415620001cb57634e487b7160e01b600052602260045260246000fd5b50919050565b61193980620001e16000396000f3fe608060405234801561001057600080fd5b506004361061010b5760003560e01c8063715018a6116100a2578063b88d4fde11610071578063b88d4fde1461021b578063c87b56dd1461022e578063cd279c7c14610241578063e985e9c514610254578063f2fde38b1461029057600080fd5b8063715018a6146101e75780638da5cb5b146101ef57806395d89b4114610200578063a22cb4651461020857600080fd5b806323b872dd116100de57806323b872dd1461018d57806342842e0e146101a05780636352211e146101b357806370a08231146101c657600080fd5b806301ffc9a71461011057806306fdde0314610138578063081812fc1461014d578063095ea7b314610178575b600080fd5b61012361011e366004611393565b6102a3565b60405190151581526020015b60405180910390f35b6101406102f5565b60405161012f9190611408565b61016061015b36600461141b565b610387565b6040516001600160a01b03909116815260200161012f565b61018b610186366004611450565b610414565b005b61018b61019b36600461147a565b61052a565b61018b6101ae36600461147a565b61055b565b6101606101c136600461141b565b610576565b6101d96101d43660046114b6565b6105ed565b60405190815260200161012f565b61018b610674565b6007546001600160a01b0316610160565b6101406106aa565b61018b6102163660046114d1565b6106b9565b61018b610229366004611599565b6106c8565b61014061023c36600461141b565b610700565b61018b61024f366004611615565b61070b565b610123610262366004611680565b6001600160a01b03918216600090815260056020908152604080832093909416825291909152205460ff1690565b61018b61029e3660046114b6565b610749565b60006001600160e01b031982166380ac58cd60e01b14806102d457506001600160e01b03198216635b5e139f60e01b145b806102ef57506301ffc9a760e01b6001600160e01b03198316145b92915050565b606060008054610304906116b3565b80601f0160208091040260200160405190810160405280929190818152602001828054610330906116b3565b801561037d5780601f106103525761010080835404028352916020019161037d565b820191906000526020600020905b81548152906001019060200180831161036057829003601f168201915b5050505050905090565b6000610392826107e4565b6103f85760405162461bcd60e51b815260206004820152602c60248201527f4552433732313a20617070726f76656420717565727920666f72206e6f6e657860448201526b34b9ba32b73a103a37b5b2b760a11b60648201526084015b60405180910390fd5b506000908152600460205260409020546001600160a01b031690565b600061041f82610576565b9050806001600160a01b0316836001600160a01b0316141561048d5760405162461bcd60e51b815260206004820152602160248201527f4552433732313a20617070726f76616c20746f2063757272656e74206f776e656044820152603960f91b60648201526084016103ef565b336001600160a01b03821614806104a957506104a98133610262565b61051b5760405162461bcd60e51b815260206004820152603860248201527f4552433732313a20617070726f76652063616c6c6572206973206e6f74206f7760448201527f6e6572206e6f7220617070726f76656420666f7220616c6c000000000000000060648201526084016103ef565b6105258383610801565b505050565b610534338261086f565b6105505760405162461bcd60e51b81526004016103ef906116ee565b610525838383610959565b610525838383604051806020016040528060008152506106c8565b6000818152600260205260408120546001600160a01b0316806102ef5760405162461bcd60e51b815260206004820152602960248201527f4552433732313a206f776e657220717565727920666f72206e6f6e657869737460448201526832b73a103a37b5b2b760b91b60648201526084016103ef565b60006001600160a01b0382166106585760405162461bcd60e51b815260206004820152602a60248201527f4552433732313a2062616c616e636520717565727920666f7220746865207a65604482015269726f206164647265737360b01b60648201526084016103ef565b506001600160a01b031660009081526003602052604090205490565b6007546001600160a01b0316331461069e5760405162461bcd60e51b81526004016103ef9061173f565b6106a86000610af5565b565b606060018054610304906116b3565b6106c4338383610b47565b5050565b6106d2338361086f565b6106ee5760405162461bcd60e51b81526004016103ef906116ee565b6106fa84848484610c16565b50505050565b60606102ef82610c49565b6007546001600160a01b031633146107355760405162461bcd60e51b81526004016103ef9061173f565b61073f8383610dd7565b6105258282610df1565b6007546001600160a01b031633146107735760405162461bcd60e51b81526004016103ef9061173f565b6001600160a01b0381166107d85760405162461bcd60e51b815260206004820152602660248201527f4f776e61626c653a206e6577206f776e657220697320746865207a65726f206160448201526564647265737360d01b60648201526084016103ef565b6107e181610af5565b50565b6000908152600260205260409020546001600160a01b0316151590565b600081815260046020526040902080546001600160a01b0319166001600160a01b038416908117909155819061083682610576565b6001600160a01b03167f8c5be1e5ebec7d5bd14f71427d1e84f3dd0314c0f7b2291e5b200ac8c7c3b92560405160405180910390a45050565b600061087a826107e4565b6108db5760405162461bcd60e51b815260206004820152602c60248201527f4552433732313a206f70657261746f7220717565727920666f72206e6f6e657860448201526b34b9ba32b73a103a37b5b2b760a11b60648201526084016103ef565b60006108e683610576565b9050806001600160a01b0316846001600160a01b0316148061092d57506001600160a01b0380821660009081526005602090815260408083209388168352929052205460ff165b806109515750836001600160a01b031661094684610387565b6001600160a01b0316145b949350505050565b826001600160a01b031661096c82610576565b6001600160a01b0316146109d05760405162461bcd60e51b815260206004820152602560248201527f4552433732313a207472616e736665722066726f6d20696e636f72726563742060448201526437bbb732b960d91b60648201526084016103ef565b6001600160a01b038216610a325760405162461bcd60e51b8152602060048201526024808201527f4552433732313a207472616e7366657220746f20746865207a65726f206164646044820152637265737360e01b60648201526084016103ef565b610a3d600082610801565b6001600160a01b0383166000908152600360205260408120805460019290610a6690849061178a565b90915550506001600160a01b0382166000908152600360205260408120805460019290610a949084906117a1565b909155505060008181526002602052604080822080546001600160a01b0319166001600160a01b0386811691821790925591518493918716917fddf252ad1be2c89b69c2b068fc378daa952ba7f163c4a11628f55a4df523b3ef91a4505050565b600780546001600160a01b038381166001600160a01b0319831681179093556040519116919082907f8be0079c531659141344cd1fd0a4f28419497f9722a3daafe3b4186f6b6457e090600090a35050565b816001600160a01b0316836001600160a01b03161415610ba95760405162461bcd60e51b815260206004820152601960248201527f4552433732313a20617070726f766520746f2063616c6c65720000000000000060448201526064016103ef565b6001600160a01b03838116600081815260056020908152604080832094871680845294825291829020805460ff191686151590811790915591519182527f17307eab39ab6107e8899845ad3d59bd9653f200f220920489ca2b5937696c31910160405180910390a3505050565b610c21848484610959565b610c2d84848484610e7c565b6106fa5760405162461bcd60e51b81526004016103ef906117b9565b6060610c54826107e4565b610cba5760405162461bcd60e51b815260206004820152603160248201527f45524337323155524953746f726167653a2055524920717565727920666f72206044820152703737b732bc34b9ba32b73a103a37b5b2b760791b60648201526084016103ef565b60008281526006602052604081208054610cd3906116b3565b80601f0160208091040260200160405190810160405280929190818152602001828054610cff906116b3565b8015610d4c5780601f10610d2157610100808354040283529160200191610d4c565b820191906000526020600020905b815481529060010190602001808311610d2f57829003601f168201915b505050505090506000610d89604080518082019091526017815276343a3a38399d1797b7bbb6383937ba37b1b7b6173c3cbd60491b602082015290565b9050805160001415610d9c575092915050565b815115610dce578082604051602001610db692919061180b565b60405160208183030381529060405292505050919050565b61095184610f89565b6106c4828260405180602001604052806000815250611080565b610dfa826107e4565b610e5d5760405162461bcd60e51b815260206004820152602e60248201527f45524337323155524953746f726167653a2055524920736574206f66206e6f6e60448201526d32bc34b9ba32b73a103a37b5b2b760911b60648201526084016103ef565b60008281526006602090815260409091208251610525928401906112e4565b60006001600160a01b0384163b15610f7e57604051630a85bd0160e11b81526001600160a01b0385169063150b7a0290610ec090339089908890889060040161183a565b602060405180830381600087803b158015610eda57600080fd5b505af1925050508015610f0a575060408051601f3d908101601f19168201909252610f0791810190611877565b60015b610f64573d808015610f38576040519150601f19603f3d011682016040523d82523d6000602084013e610f3d565b606091505b508051610f5c5760405162461bcd60e51b81526004016103ef906117b9565b805181602001fd5b6001600160e01b031916630a85bd0160e11b149050610951565b506001949350505050565b6060610f94826107e4565b610ff85760405162461bcd60e51b815260206004820152602f60248201527f4552433732314d657461646174613a2055524920717565727920666f72206e6f60448201526e3732bc34b9ba32b73a103a37b5b2b760891b60648201526084016103ef565b600061102e604080518082019091526017815276343a3a38399d1797b7bbb6383937ba37b1b7b6173c3cbd60491b602082015290565b9050600081511161104e5760405180602001604052806000815250611079565b80611058846110b3565b60405160200161106992919061180b565b6040516020818303038152906040525b9392505050565b61108a83836111b1565b6110976000848484610e7c565b6105255760405162461bcd60e51b81526004016103ef906117b9565b6060816110d75750506040805180820190915260018152600360fc1b602082015290565b8160005b811561110157806110eb81611894565b91506110fa9050600a836118c5565b91506110db565b60008167ffffffffffffffff81111561111c5761111c61150d565b6040519080825280601f01601f191660200182016040528015611146576020820181803683370190505b5090505b84156109515761115b60018361178a565b9150611168600a866118d9565b6111739060306117a1565b60f81b818381518110611188576111886118ed565b60200101906001600160f81b031916908160001a9053506111aa600a866118c5565b945061114a565b6001600160a01b0382166112075760405162461bcd60e51b815260206004820181905260248201527f4552433732313a206d696e7420746f20746865207a65726f206164647265737360448201526064016103ef565b611210816107e4565b1561125d5760405162461bcd60e51b815260206004820152601c60248201527f4552433732313a20746f6b656e20616c7265616479206d696e7465640000000060448201526064016103ef565b6001600160a01b03821660009081526003602052604081208054600192906112869084906117a1565b909155505060008181526002602052604080822080546001600160a01b0319166001600160a01b03861690811790915590518392907fddf252ad1be2c89b69c2b068fc378daa952ba7f163c4a11628f55a4df523b3ef908290a45050565b8280546112f0906116b3565b90600052602060002090601f0160209004810192826113125760008555611358565b82601f1061132b57805160ff1916838001178555611358565b82800160010185558215611358579182015b8281111561135857825182559160200191906001019061133d565b50611364929150611368565b5090565b5b808211156113645760008155600101611369565b6001600160e01b0319811681146107e157600080fd5b6000602082840312156113a557600080fd5b81356110798161137d565b60005b838110156113cb5781810151838201526020016113b3565b838111156106fa5750506000910152565b600081518084526113f48160208601602086016113b0565b601f01601f19169290920160200192915050565b60208152600061107960208301846113dc565b60006020828403121561142d57600080fd5b5035919050565b80356001600160a01b038116811461144b57600080fd5b919050565b6000806040838503121561146357600080fd5b61146c83611434565b946020939093013593505050565b60008060006060848603121561148f57600080fd5b61149884611434565b92506114a660208501611434565b9150604084013590509250925092565b6000602082840312156114c857600080fd5b61107982611434565b600080604083850312156114e457600080fd5b6114ed83611434565b91506020830135801515811461150257600080fd5b809150509250929050565b634e487b7160e01b600052604160045260246000fd5b600067ffffffffffffffff8084111561153e5761153e61150d565b604051601f8501601f19908116603f011681019082821181831017156115665761156661150d565b8160405280935085815286868601111561157f57600080fd5b858560208301376000602087830101525050509392505050565b600080600080608085870312156115af57600080fd5b6115b885611434565b93506115c660208601611434565b925060408501359150606085013567ffffffffffffffff8111156115e957600080fd5b8501601f810187136115fa57600080fd5b61160987823560208401611523565b91505092959194509250565b60008060006060848603121561162a57600080fd5b61163384611434565b925060208401359150604084013567ffffffffffffffff81111561165657600080fd5b8401601f8101861361166757600080fd5b61167686823560208401611523565b9150509250925092565b6000806040838503121561169357600080fd5b61169c83611434565b91506116aa60208401611434565b90509250929050565b600181811c908216806116c757607f821691505b602082108114156116e857634e487b7160e01b600052602260045260246000fd5b50919050565b60208082526031908201527f4552433732313a207472616e736665722063616c6c6572206973206e6f74206f6040820152701ddb995c881b9bdc88185c1c1c9bdd9959607a1b606082015260800190565b6020808252818101527f4f776e61626c653a2063616c6c6572206973206e6f7420746865206f776e6572604082015260600190565b634e487b7160e01b600052601160045260246000fd5b60008282101561179c5761179c611774565b500390565b600082198211156117b4576117b4611774565b500190565b60208082526032908201527f4552433732313a207472616e7366657220746f206e6f6e20455243373231526560408201527131b2b4bb32b91034b6b83632b6b2b73a32b960711b606082015260800190565b6000835161181d8184602088016113b0565b8351908301906118318183602088016113b0565b01949350505050565b6001600160a01b038581168252841660208201526040810183905260806060820181905260009061186d908301846113dc565b9695505050505050565b60006020828403121561188957600080fd5b81516110798161137d565b60006000198214156118a8576118a8611774565b5060010190565b634e487b7160e01b600052601260045260246000fd5b6000826118d4576118d46118af565b500490565b6000826118e8576118e86118af565b500690565b634e487b7160e01b600052603260045260246000fdfea2646970667358221220880b1cf31038e6d974ad51dbd18405c91882a821c7ae9ad8891aa247f4af527464736f6c63430008090033",
  "devdoc": {
    "kind": "dev",
    "methods": {
      "approve(address,uint256)": {
        "details": "See {IERC721-approve}."
      },
      "balanceOf(address)": {
        "details": "See {IERC721-balanceOf}."
      },
      "getApproved(uint256)": {
        "details": "See {IERC721-getApproved}."
      },
      "isApprovedForAll(address,address)": {
        "details": "See {IERC721-isApprovedForAll}."
      },
      "name()": {
        "details": "See {IERC721Metadata-name}."
      },
      "owner()": {
        "details": "Returns the address of the current owner."
      },
      "ownerOf(uint256)": {
        "details": "See {IERC721-ownerOf}."
      },
      "renounceOwnership()": {
        "details": "Leaves the contract without owner. It will not be possible to call `onlyOwner` functions anymore. Can only be called by the current owner. NOTE: Renouncing ownership will leave the contract without an owner, thereby removing any functionality that is only available to the owner."
      },
      "safeTransferFrom(address,address,uint256)": {
        "details": "See {IERC721-safeTransferFrom}."
      },
      "safeTransferFrom(address,address,uint256,bytes)": {
        "details": "See {IERC721-safeTransferFrom}."
      },
      "setApprovalForAll(address,bool)": {
        "details": "See {IERC721-setApprovalForAll}."
      },
      "supportsInterface(bytes4)": {
        "details": "See {IERC165-supportsInterface}."
      },
      "symbol()": {
        "details": "See {IERC721Metadata-symbol}."
      },
      "transferFrom(address,address,uint256)": {
        "details": "See {IERC721-transferFrom}."
      },
      "transferOwnership(address)": {
        "details": "Transfers ownership of the contract to a new account (`newOwner`). Can only be called by the current owner."
      }
    },
    "version": 1
  },
  "userdoc": {
    "kind": "user",
    "methods": {},
    "version": 1
  },
  "storageLayout": {
    "storage": [
      {
        "astId": 1436,
        "contract": "contracts/assets/OwlNFTV2.sol:OwlNFTV2",
        "label": "_name",
        "offset": 0,
        "slot": "0",
        "type": "t_string_storage"
      },
      {
        "astId": 1438,
        "contract": "contracts/assets/OwlNFTV2.sol:OwlNFTV2",
        "label": "_symbol",
        "offset": 0,
        "slot": "1",
        "type": "t_string_storage"
      },
      {
        "astId": 1442,
        "contract": "contracts/assets/OwlNFTV2.sol:OwlNFTV2",
        "label": "_owners",
        "offset": 0,
        "slot": "2",
        "type": "t_mapping(t_uint256,t_address)"
      },
      {
        "astId": 1446,
        "contract": "contracts/assets/OwlNFTV2.sol:OwlNFTV2",
        "label": "_balances",
        "offset": 0,
        "slot": "3",
        "type": "t_mapping(t_address,t_uint256)"
      },
      {
        "astId": 1450,
        "contract": "contracts/assets/OwlNFTV2.sol:OwlNFTV2",
        "label": "_tokenApprovals",
        "offset": 0,
        "slot": "4",
        "type": "t_mapping(t_uint256,t_address)"
      },
      {
        "astId": 1456,
        "contract": "contracts/assets/OwlNFTV2.sol:OwlNFTV2",
        "label": "_operatorApprovals",
        "offset": 0,
        "slot": "5",
        "type": "t_mapping(t_address,t_mapping(t_address,t_bool))"
      },
      {
        "astId": 2423,
        "contract": "contracts/assets/OwlNFTV2.sol:OwlNFTV2",
        "label": "_tokenURIs",
        "offset": 0,
        "slot": "6",
        "type": "t_mapping(t_uint256,t_string_storage)"
      },
      {
        "astId": 400,
        "contract": "contracts/assets/OwlNFTV2.sol:OwlNFTV2",
        "label": "_owner",
        "offset": 0,
        "slot": "7",
        "type": "t_address"
      }
    ],
    "types": {
      "t_address": {
        "encoding": "inplace",
        "label": "address",
        "numberOfBytes": "20"
      },
      "t_bool": {
        "encoding": "inplace",
        "label": "bool",
        "numberOfBytes": "1"
      },
      "t_mapping(t_address,t_bool)": {
        "encoding": "mapping",
        "key": "t_address",
        "label": "mapping(address => bool)",
        "numberOfBytes": "32",
        "value": "t_bool"
      },
      "t_mapping(t_address,t_mapping(t_address,t_bool))": {
        "encoding": "mapping",
        "key": "t_address",
        "label": "mapping(address => mapping(address => bool))",
        "numberOfBytes": "32",
        "value": "t_mapping(t_address,t_bool)"
      },
      "t_mapping(t_address,t_uint256)": {
        "encoding": "mapping",
        "key": "t_address",
        "label": "mapping(address => uint256)",
        "numberOfBytes": "32",
        "value": "t_uint256"
      },
      "t_mapping(t_uint256,t_address)": {
        "encoding": "mapping",
        "key": "t_uint256",
        "label": "mapping(uint256 => address)",
        "numberOfBytes": "32",
        "value": "t_address"
      },
      "t_mapping(t_uint256,t_string_storage)": {
        "encoding": "mapping",
        "key": "t_uint256",
        "label": "mapping(uint256 => string)",
        "numberOfBytes": "32",
        "value": "t_string_storage"
      },
      "t_string_storage": {
        "encoding": "bytes",
        "label": "string",
        "numberOfBytes": "32"
      },
      "t_uint256": {
        "encoding": "inplace",
        "label": "uint256",
        "numberOfBytes": "32"
      }
    }
  }
}